:020000040800F2
:100000009020002001010008831500087B120008E1
:1000100081150008B101000811320008000000003D
:10002000000000000000000000000000ED1F0008BC
:10003000B30100080000000007190008EF1F0008C6
:100040001B0100081B0100081B0100081B01000820
:100050001B0100081B0100081B0100081B01000810
:100060001B0100081B0100081B0100081B01000800
:100070001B0100081B0100081B0100081B010008F0
:100080001B0100081B0100081B0100081B010008E0
:10009000A93100081B0100081B0100081B01000812
:1000A0001B010008992000081B0100081B01000823
:1000B0001B0100081B0100081B0100081B010008B0
:1000C0001B0100081B0100081B0100081B010008A0
:1000D0001B0100081B0100081B0100081B01000890
:1000E0001B0100081B0100081B010008DFF80CD0F1
:1000F00000F04CF800480047313200089020002002
:100100000648804706480047FEE7FEE7FEE7FEE7B1
:10011000FEE7FEE7FEE7FEE7FEE7FEE75120000808
:10012000ED000008202A04DB203A21FA02F0002129
:10013000704721FA02F3D040C2F1200291400843F7
:100140001946704740EA01039B0703D009E008C93C
:10015000121F08C0042AFAD203E011F8013B00F88C
:10016000013B521EF9D27047D2B201E000F8012BD8
:10017000491EFBD270470022F6E710B513460A4627
:1001800004461946FFF7F0FF204610BD064C074D08
:1001900006E0E06840F0010394E807009847103457
:1001A000AC42F6D3FFF7A6FF98320008B832000839
:1001B000FEE770477047000006490020C861064806
:1001C000016941F004010161016941F040010161EF
:1001D000704700007010002000200240064A0021F5
:1001E000D16106490A6942F002020A614861086960
:1001F00040F040000861704770100020002002406D
:10020000044B0022DA61044A136943F001031361CD
:100210000180704770100020002002401448002226
:10022000C168CB06134904D5CA6942F00202CA610B
:100230001022C3685B0705D5CB6943F00103CB618E
:1002400042F00402C369DB0707D0CB6943F0040323
:10025000CB61C16921F00101C161A2F58071013951
:1002600001D0C2607047C16921F00101C1617047CE
:10027000002002407010002070B5054600F0D8F84C
:100280000646114C09E0681C07D025B100F0D0F8F3
:10029000801BA84201D9032070BDE068C007F2D1DD
:1002A000E068800601D52020E060E068C00605D443
:1002B000E069C00702D1E068400703D5FFF7AEFF51
:1002C000012070BD002070BD002002402DE9F047E4
:1002D000054626480F460126017E01290FD001213F
:1002E000814601762868DFF888804CF25034022875
:1002F00008D0A2462046FFF7BFFFA8B131E0022098
:10030000BDE8F0872046FFF7B7FF08BB0120FFF7E5
:1003100053FF2046FFF7B0FFD8F81010064621F033
:100320000401C8F810101CE04FF0FF303860AC68D2
:1003300011E02046FFF752FF5046FFF79DFFD8F827
:100340001010060021F00201C8F8101001D03C6026
:1003500007E004F58064D5E9020100EB8120A042AA
:10036000E7D8002189F818103046C9E7701000203E
:10037000002002400348016941F080010161002032
:1003800070470000002002402DE9F05F07461C483E
:1003900088460024017E15461E46012909D0012108
:1003A000814601764CF2503A5046FFF765FF18B18E
:1003B00022E00220BDE8F09F012F02D0022F00D0E2
:1003C0000427D346DFF83CA0220128463146FFF738
:1003D000A9FE81B208EB4400FFF712FF5846FFF771
:1003E0004BFFDAF8102022F00102CAF8102018B9E9
:1003F000641CE4B2BC42E7D3002289F81820D9E794
:100400007010002000200240064900200A691206F0
:1004100007D5054A4A60054A4A600969090600D5B8
:10042000012070470020024023016745AB89EFCDD2
:100430000148806870470000700000200248816811
:10044000027811448160704770000020074810B5A1
:10045000016841F010010160032000F08DF80020D8
:1004600000F006F800F03EF8002010BD0020024029
:1004700000B5014687B00022192000F05DF8192070
:1004800000F04EF81348816941F400618161806990
:1004900005A900F400600690684600F01BFC00F01F
:1004A00039FC0D490D4AB0FBF1F10D48491E0260BF
:1004B000416040F2E7320021C0E90321816000F091
:1004C000F3FD10B1012007B000BD054800F008FEA3
:1004D000F9E700000010024040420F00002C0140EC
:1004E0002C1000200C4808B5816941F001018161A0
:1004F000816901F001010091C16941F08051C16140
:10050000C06900F0805000900448416821F0E0612B
:1005100041F00071416008BD001002400000014040
:1005200000F01F02012191404009800000F1E0200D
:10053000C0F8001170470000F0B40E4B1B680C4669
:10054000C3F30223C3F10705042D00D90425191DA7
:10055000072901D2002300E0DB1E012606FA05F17F
:10056000491E214099409E40761E16403143F0BC02
:1005700001F008B80CED00E0064900F00702086839
:100580004FF6FF03184040EA0220034A1043086078
:10059000704700000CED00E00000FA0510B50C06F5
:1005A00005D501F07F0100EB4110283003E000EB9E
:1005B000411000F50A7099B232B101228272C180F5
:1005C000190C0181002010BD002282728180F9E7A0
:1005D000704700EB4112D0F85C04D26B01F016BFFB
:1005E00000EB4112D0F85C04D2F83C2201F063BF6A
:1005F00010B504460A460B0601F07F0004EB4011DB
:1006000001D5283101E001F50A710870D009487060
:1006100094F82804012809D0012084F828042068CF
:1006200002F0DAFB002084F8280410BD022010BD7F
:1006300070B50A460446090602F07F0003D504EBB4
:100640004011283103E004EB421101F50A71002545
:100650008D700870D009487094F82804012809D0DA
:10066000012084F82804206802F064FC84F82854EF
:10067000002070BD022070BD10B5044690F828041B
:1006800001280AD0012084F82804080607D501F0C3
:100690007F01206802F086FD04E0022010BD206882
:1006A00002F07EFD002084F8280410BD01F00F0147
:1006B00000EB4110B0F8440280B2704770B50446B8
:1006C0000D460E0601F07F0004EB401101D52831E4
:1006D00001E001F50A710870E80948700A61CB7001
:1006E00094F82804012809D0012084F828042068FF
:1006F00002F042FA002084F8280470BD022070BD88
:1007000070B50C4601F07F0500EB4511C1E98F2360
:100710000022C1F8442281F8292281F8285201F5EB
:100720000A716206006802F05FFC002070BD70B5BF
:100730000D460446090605F07F0003D504EB401181
:10074000283103E004EB451101F50A7101228A709A
:100750000870E809487094F82804012807D084F844
:100760002824206802F01BFC680602D006E0022064
:1007700070BD04F22C41206802F0DAFB002084F8FE
:10078000280470BD70B50C4601F07F0500EB4511E3
:10079000C1E90F2300224A64012281F8292001F8CF
:1007A000285F6206006802F01FFC002070BD10B5D3
:1007B0000446006802F0FEFC000402D5204600F06A
:1007C000F1FE206802F0F6FC40050CD5206830F8F8
:1007D000441F21F480610180204600F0EDF80021E3
:1007E000204600F004F9206802F0E4FC400405D53E
:1007F000206830F8441F21F480410180206802F015
:10080000D9FC800405D5206830F8441F21F400513C
:100810000180206802F0CEFCC00414D5206830F8B6
:10082000401F21F004010180206830F8401F21F0B2
:1008300008010180204600F0D2F8206830F8441FFB
:1008400021F480510180206802F0B4FC00051AD523
:10085000206830F8401F41F008010180206830F81E
:10086000441F21F400610180206830F8401F41F0EE
:1008700004010180206802F09DFCC043C00402D541
:10088000204600F0E9F8206802F094FC800508D5C5
:10089000206830F8441F21F400710180204600F0E8
:1008A000A2F8206802F086FCC00505D5206830F863
:1008B000441F21F48071018010BD00002DE9F0413A
:1008C00086B004004FF0000504D094F829040026F7
:1008D00020B108E0012006B0BDE8F08184F828646A
:1008E000204600F04BF8032084F82904206802F029
:1008F00018FB04F11001142288466846FFF722FC19
:1009000094E80F0002F066FA0021206802F065FC0E
:100910005FF0010704EB451080F8297000F8285FAC
:100920008581C670066146616D1C86610F2DF1D30D
:100930005FF0000004EB401181F8296281F8280281
:10094000888681F82B62C1F83862C1F83C62401C8D
:10095000C1F840620F28EDD3142241466846FFF7E4
:10096000F1FB94E80F0002F0CDFA84F8246084F8DB
:100970002974206802F0C4FA0020ACE708B50068CA
:100980000B49884212D10B48C16941F40001C16191
:10099000C069002200F40000009011461420FFF707
:1009A000CBFDBDE808401420FFF7BABD08BD00002C
:1009B000005C00400010024070B5044680680125CC
:1009C000022801D0FFF7F6FB2946D4F85C0401F0B9
:1009D00041FED4F85C04BDE8704001F00ABED0F8D6
:1009E0005C0401F025BED0F85C0401F027BE10B510
:1009F000044690F8280401280BD0012084F828042C
:100A000084F82410206802F0EAFB002084F828040F
:100A100010BD022010BDD0F85C2400F22C4110461D
:100A200001F024BE10B5044690F82804012810D027
:100A3000012084F8280401462046FFF7C9FD2068FC
:100A400002F05CFA206802F0A4FB002084F828047D
:100A500010BD022010BD000010B50446D0F85C04A3
:100A600001F043FEA069002804D00348016841F06A
:100A70000601016010BD000010ED00E02DE9F84313
:100A800005460078354CC00754D0E0690026C00008
:100A900008D4E06940F08050E061E069012600F090
:100AA000805000902E480168C90512D40168804624
:100AB00041F480710160FFF7BBFC074605E000BF11
:100AC000FFF7B6FCC01B642823D8D8F80000C00587
:100AD000F6D5206A10F4407021D0A98801F4407145
:100AE00081421CD0206A1F49012220F440700A6014
:100AF00000220A602062C00711D0FFF799FC074668
:100B000041F2883808E000BFFFF792FCC11B414565
:100B100002D90320BDE8F883206A8007F4D5206A53
:100B2000696820F44070084320621EB1E06920F03B
:100B30008050E0612878800705D56068A96820F4B6
:100B40004040084360602878C00605D56068E968C1
:100B500020F48000084360600020DBE700100240C2
:100B600000700040400442422DE9F047DFF8548114
:100B700005460E46D8F8000000F00700B0420CD23F
:100B8000D8F8001021F007013143C8F80010D8F858
:100B9000000000F00700B0426FD128684A4C81077E
:100BA00012D5400703D5606840F4E06060602878A3
:100BB000000703D5606840F4605060606068A96811
:100BC00020F0F000084360602878C00744D06868CF
:100BD000012816D02168022816D0890700294CDA8E
:100BE000616821F0030101436160FFF721FC69683E
:100BF000074641F2883001290ED00229814618D0DB
:100C000026E021688903E9E78901E7E7FFF710FC9F
:100C1000C11B494501D918E081466068C0F38100D5
:100C20000128F3D118E000BFFFF702FCC11B4945C2
:100C30000BD86068C0F381000228F5D10CE000BF3A
:100C4000FFF7F6FBC11B494502D90320BDE8F08739
:100C5000606810F00C0FF3D1D8F80010404601F096
:100C60000701B1420BD9016821F00701314301604E
:100C7000006800F00700B04201D00120E6E72878C4
:100C8000400705D56068E96820F4E06008436060CB
:100C90002878000706D56068296920F4605040EA8A
:100CA000C100606000F046F86168084AC1F30311B2
:100CB000515CC840064908600020FFF7D9FB0020BE
:100CC000C4E7000000200240001002406632000825
:100CD0007C0000200F2202600C4A536803F00303DB
:100CE0004360536803F0F0038360536803F4E063E8
:100CF000C36052684FF4E06303EAD2020261044821
:100D0000006800F007000860704700000010024013
:100D1000002002400448054900684968044AC1F3BC
:100D2000C221515CC84070477C0000200010024086
:100D30007632000812A185B00FC98DE80F0014A00B
:100D4000144A006804905168134801F00C03042B06
:100D500010D0082B0ED1C1F38343C9031DF8030043
:100D60000AD5516804AAC1F34041515C0A4A504374
:100D7000B0FBF1F005B0704708494843FAE70000BE
:100D800002030405060708090A0B0C0D0E0F1010CC
:100D9000010200000010024000127A0000093D002C
:100DA0002DE9F84F04460078B94DC00748D068686F
:100DB000C0F38100012807D06868C0F381000228D1
:100DC00009D16868C00306D52868800338D56068F3
:100DD00000286FD034E06068B0F5803F0BD010B1D0
:100DE000B0F5A02F11D0286820F480302860286842
:100DF00020F4802002E0286840F480302860606899
:100E000088B1FFF715FB064609E0286840F480200A
:100E10002860F0E7FFF70CFB801B642875D8286872
:100E20008003F7D50CE0FFF703FB064605E000BFA3
:100E3000FFF7FEFA801B6428F0D828688003F7D4F7
:100E40002078944E80074FF001094FF000083BD501
:100E5000686810F00C0F07D06868C0F381000228A2
:100E600009D16868C00306D42868800714D52069B2
:100E700001281FD110E02069B0B1C6F80090FFF73B
:100E8000D7FA074605E000BFFFF7D2FAC01B0228D9
:100E9000C4D828688007F7D52868616920F0F80071
:100EA00040EAC10028600FE0C6F80080FFF7C0FAF2
:100EB000074606E0E9E000BFFFF7BAFAC01B0228C8
:100EC00023D828688007F7D4207800072CD57248EB
:100ED000A169D9B1C0F80090FFF7AAFA074604E06B
:100EE000FFF7A6FAC01B02280FD8686A8007F7D55B
:100EF0006A484FF4FA510068B0FBF1F0009000BF6F
:100F00000098411E0091FAD20EE080E0C0F8008007
:100F1000FFF78EFA074604E0FFF78AFAC01B0228A3
:100F200075D8686A8007F7D42078400760D5E869EB
:100F30000027C00008D4E86940F08050E861E86903
:100F4000012700F08050009055480168C90513D46E
:100F50000168834641F480710160FFF769FA8246B7
:100F600006E000BFFFF764FAA0EB0A0064284ED841
:100F7000DBF80000C005F5D5E06801280AD008B10B
:100F8000052813D0286A20F001002862286A20F082
:100F9000040002E0286A40F001002862E06841F2A3
:100FA000883B98B1FFF744FA82460BE0286A40F08C
:100FB00004002862EEE700BFFFF73AFAA0EB0A014F
:100FC00059455AD8286A8007F6D50CE0FFF730FA61
:100FD000824605E0FFF72CFAA0EB0A0159454CD8F0
:100FE000286A8007F6D41FB1E86920F08050E861D4
:100FF000E06988B36968C1F38101022945D00228FC
:10100000C6F8608004D0FFF713FA044638E034E0F5
:10101000FFF70EFA074604E0FFF70AFAC01B0228A2
:101020002BD828688001F7D4206AB0F5803F05D11D
:101030006868A16820F4003008436860D4E90801BA
:101040000843696821F4741108436860C6F8609029
:10105000FFF7EEF9044606E015E000BFFFF7E8F9F8
:10106000001B022809D828688001F7D50BE000BFD3
:10107000FFF7DEF9001B022802D90320BDE8F88F34
:1010800028688001F4D40020F8E70120F6E700008A
:101090000010024000004242800442427C000020D6
:1010A000007000407047704710B5040003D094F8FA
:1010B0003D0010B107E0012010BD002084F83C0085
:1010C000204600F00CF8022084F83D00211D206825
:1010D00000F0E8FF012084F83D00002010BD7047BB
:1010E0000168CA6842F00102CA600068016841F004
:1010F0000101016000207047704770B50446006828
:1011000001694FF00005C943890715D4C168C94377
:10111000890711D4E91E01610120207720688069C8
:101120008007204602D0FFF7E7FF04E000F098F8C0
:10113000204600F096F8257720680169C9434907E1
:1011400017D4C168C943490713D46FF00401016182
:10115000022020772068806910F4407F204602D06A
:10116000FFF7CAFF04E000F07BF8204600F079F8B2
:10117000257720680169C943090716D4C168C943A6
:10118000090712D46FF0080101610420207720685C
:10119000C0698007204602D0FFF7AEFF04E000F0F0
:1011A0005FF8204600F05DF8257720680169C943A3
:1011B000C90617D4C168C943C90613D46FF010011A
:1011C0000161082020772068C06910F4407F204624
:1011D00002D0FFF791FF04E000F042F8204600F053
:1011E00040F8257720680169C943C90708D1C1685B
:1011F000C943C90704D1891E0161204600F032F8B5
:1012000020680169C943090609D4C168C9430906B0
:1012100005D46FF0800101612046FFF743FF20688D
:101220000169C943490609D4C168C943490605D4BF
:101230006FF040010161204600F01EF8206801694E
:10124000C94389060BD4C168C943890607D46FF026
:10125000200101612046BDE87040FFF724BF70BD4A
:101260007047704700680349884201D1FFF7E6B82C
:1012700070470000002C01407047FEE7F0B50023E6
:101280000A24302537261F4611E000BFB4EB107F3B
:1012900002D905EB107C01E006EB107C01F813C0CD
:1012A00001EB430C00015B1C8CF80170DBB2934234
:1012B000ECD3F0BD70B5D0F81842054694F818028A
:1012C00040B9D4F8140228B1607A18B9012128462F
:1012D00001F0F9F98121284601F0F5F9607A022838
:1012E00008D104F503722846BDE870401F23012190
:1012F00001F076B970BD000070B5D0F8184206460E
:101300000121D4F81002C4F83002D4F81402C4F851
:101310003402304601F00DF91F280DD12849D4F8C8
:101320000C02884208D194F81912012904D894F8C3
:101330001A0208B1102809D994F81912202305229D
:10134000304600F022FD0220607209E004F21B2208
:10135000304600F0EBFA0028207A08DA052804D09D
:101360003046BDE87040FFF7A5BF012121E002280B
:1013700024D0012822D0032820D06189C9B1D6F811
:101380001852304604F10C02D5F814328B4200D2C8
:1013900019468BB2D5F83412C91AC5F83412002197
:1013A00085F8381204212972BDE87040812101F0CE
:1013B000A5B93046BDE8704000F084B870BD0000AB
:1013C0005553424310B5D0F81842627A022A08D029
:1013D00009060BD5012A09D0BDE81040012100F013
:1013E00071B8812101F06FF90020607210BD10B555
:1013F000D0F818220446107A022805D0032801D01C
:10140000042810D1002109E092F81912204602F2B6
:101410001B2200F08BFA002805DA01212046BDE8E6
:10142000104000F04FB810BD10B5D0F81822044697
:10143000107A80B1012813D192F81912204602F2D5
:101440001B2200F073FA00280ADA2046BDE810409B
:10145000012100F037B82046BDE81040FFF74CBF2F
:1014600010BDD0F8180200210172704770B5D0F895
:101470001842002105462172617284F85D1284F8D9
:101480005C12D0F81C020168002088470121284620
:1014900001F046F88121284601F042F804F5037274
:1014A0002846BDE870401F23012101F099B8D0F80B
:1014B000182200211172012151721F2302F50372BB
:1014C00001F08EB870B5D0F8184205460B48C4F844
:1014D0002C0284F83812002020720D2304F50B72C0
:1014E0008121284601F00AF904F503722846BDE877
:1014F00070401F23012101F073B80000555342537F
:10150000094808B5816941F020018161816901F0D4
:1015100020010091816941F004018161806900F03E
:101520000400009008BD00000010024010B5002229
:101530000F49104800F043FF08B1FEF73BFE0E498B
:101540000C4801F0C0F908B1FEF734FE0B49094818
:1015500001F03FF908B1FEF72DFE064801F000FA50
:10156000002803D0BDE81040FEF724BE10BD0000E7
:1015700000000020280100208400002050000020EE
:10158000FEE770470907090E002806DA00F00F0091
:1015900000F1E02080F8141D704700F1E02080F891
:1015A000001470472DE9FC5F4FF000080446ADF8C9
:1015B0000480ADF8008048F60F7B4FF002094FF42D
:1015C000806692E1BDF8041011F00F072BD030F8BF
:1015D0002710ADF80010BDF80010090478D530F8D8
:1015E000272040F68F710A4020F8272004EB47158A
:1015F00095F8320205F50A750028206869D0297827
:1016000030F8212052047DD5B0F8503009EBC101EB
:10161000194406EB4101415AC1F309015FEA010A8D
:1016200071D0EA88D0E0BDF80410C9062AD4018838
:1016300001EA0B010180206804F12805B0F8502070
:101640002B7809EBC301114406EB4101405AC0F36A
:1016500009006064E16B0844E06300212046FEF766
:10166000B8FF94F824000028ABD0A8690028A8D1BE
:1016700094F82400216840F08000A1F84C0084F820
:10168000248032E1018804F50A75ADF80010BDF838
:10169000001009051ED5B0F850302978062202EB5B
:1016A000C101194406EB4101405A04F22C41C0F338
:1016B0000903EB61AA88206801F080FD2068018899
:1016C00040F68F72114001802046FFF7A4F90CE12B
:1016D000A0E055E0BDF800100904D2D5028840F61C
:1016E0008F710A4002802068B0F8503029780622B5
:1016F00002EBC101194406EB4101405A83059B0DE1
:10170000EB6101E051E063E008D0AA8869692068D4
:1017100001F054FDE96968690844686100212046C8
:10172000FEF75EFF2068B0F85010891D06EB4101FE
:10173000014428693E280CD9C0F34F12C00601D1DC
:10174000521E92B24FF6FF7000EA822040F4004031
:1017500009E0C0F34F02C00701D0521C92B24FF60D
:10176000FF7000EA82200860216808884BF68F72BB
:10177000104080F4405048F2800210430880B4E0EA
:10178000B0F850202B78062101EBC301114406EB81
:101790004101415AC1F309015FEA010A24D0AA8834
:1017A0005346696901F00AFD1EE0B0F85020062397
:1017B00003EBC101114406EB4101415AC1F3090198
:1017C0005FEA010A04D02A895346696901F0F6FCF0
:1017D0002978206830F8213048F68F72134048F29B
:1017E000C002134320F82130E96901EB0A00E861E7
:1017F000696901EB0A026A61AB6913B12869504556
:1018000004D929782046FEF7EBFE03E0297820462C
:10181000FEF776FFBDF80000000666D5206804EBF1
:10182000471530F8271001EA0B0120F8271095F82A
:10183000320028350028206812D0297830F821207D
:10184000B0F8503052061ED509EBC101194406EB21
:101850004101405A83059B0DEB6124D0EA881EE0CC
:10186000B0F850302A7809EBC201194406EB410167
:10187000405A83059B0DEB6121D0AA8869692068D5
:1018800001F0B3FC1BE0062202EBC101194406EB98
:101890004101405A83059B0DEB6104D02A89696997
:1018A000206801F0A2FC2978206830F8212048F651
:1018B0008F731A404CF280031A4320F821202068CD
:1018C000B0F850202B7809EBC301114406EB41011D
:1018D000405AC0F30900E86169690A186A61297809
:1018E000AB69204663B1FEF74DFF2068B0F84410A5
:1018F000ADF8041009043FF565AE0020BDE8FC9F7B
:10190000FEF767FEF1E7704710B5D0F818421A44A9
:10191000D4F860329A4206D92123052200F035FA24
:101920004FF0FF3010BD002010BD00002DE9F04148
:10193000137800244FF0FF35232B73D00DDC1A2BC6
:1019400071D005DCBBB1032B36D0122B11D160E076
:101950001B2B01D01E2B0CD181E02A2B73D004DC71
:10196000252B71D0282B04D1A1E02F2B6DD05A2B21
:101970006CD02023A9E0D0F8187206468846D7F824
:10198000140240B197F81912202305224FEA0600ED
:1019900000F0FBF9A4E0D6F81C02816840468847B5
:1019A00040B13A2302224146304600F0EEF90520CC
:1019B000387295E07C8197E0D0F818120023C8189F
:1019C0005B1CDBB20473122BF9D3702008730C205C
:1019D000C87491F85C3291F85D02834212D001EB39
:1019E000C3005B1C90F83C528D7390F841520D7609
:1019F00090F840024876D8B281F85C02042801D100
:101A000081F85C4212204881107912286CD84881F4
:101A10006AE05578D0F81832ED0705D00720334931
:101A2000588114E03BE01EE0D0F81C0201EBC1013C
:101A30001279C06900EB81010879401D824200D80B
:101A40001046588108E036E02DE038E019E0401EED
:101A500080B21D180A5C2A730028F8D144E0D0F83F
:101A60001802448140E0D0F818120820204A48812A
:101A7000401E0004000C01EB0005135C2B73F7D132
:101A800032E0D0F8180208211A4A4181491E09049F
:101A9000090C00EB0105535C2B73F7D124E0BDE882
:101AA000F04100F03BB9BDE8F04100F00CB9BDE8F1
:101AB000F04100F0B3B8BDE8F04100F081B95278D0
:101AC000D0F81862920702D52423052260E7B6F801
:101AD000682293B2D6F86422FFF716FF002802DAD4
:101AE0002846BDE8F08174812046FAE77E3200087E
:101AF000853200088D3200082DE9F041D0F81842F7
:101B000006464FF40070D4F868520F46854200D361
:101B10000546B4F85E02B5FBF0F18BB2D4F864125E
:101B2000B1FBF0F2D6F81C0204F10C018846D0F8A3
:101B300010C03846E047002809DA1123042239464C
:101B4000304600F022F94FF0FF30BDE8F081ABB233
:101B500042468121304600F0D1FDD4F86402284489
:101B6000C4F86402D4F86802401BC4F86802D4F8D0
:101B70003412A1EB0501C4F8341201D10320207204
:101B80000020E2E72DE9F047D0F818424FF4007644
:101B90008846D4F868520746B54200D33546B4F8B3
:101BA0005E02B5FBF0F18BB2D4F86412B1FBF0F237
:101BB000D7F81C0204F10C018946D0F814C0404645
:101BC000E047002809DA032304224146384600F0A2
:101BD000DCF84FF0FF30BDE8F087D4F86402284409
:101BE000C4F86402D4F86802401BC4F86802D4F850
:101BF0003412A1EB0501C4F834120AD0B04200D36C
:101C0000304683B24A460121384600F0E9FC002004
:101C1000E1E700213846FFF755FCF8E72DE9F041F0
:101C2000D0F8184205461746207A8846F0BB94F84B
:101C300018024FF0FF36000635D5D5F81C02816832
:101C40004046884730B13A2302224146284600F0F8
:101C50009CF813E0D7F80200414600BA20F0FF02DA
:101C600078790243C4F86422B7F8070043BA2846DB
:101C7000C4F86832FFF748FE002802DA3046BDE8B3
:101C8000F08102202072B4F85E12D4F86402484356
:101C9000C4F86402D4F868024843C4F86802D4F86F
:101CA0001412814206D094F8191200E002E02023B9
:101CB0000522CBE74FF40070608141462846BDE81D
:101CC000F041FFF719BF70B505460E46D5E98640CD
:101CD00004F25E224368911C3046984740B13A2393
:101CE00002223146284600F050F84FF0FF3070BD18
:101CF000D4F86002401E010E2173010C6173010AC9
:101D0000A173E073002020746074B4F85E02010ACD
:101D1000A174E07408206081002070BD2DE9FC41B1
:101D20000546D0F8184200200F4606462118401CF0
:101D300080B20E730C28F9D3D5F81C026A4601A9AB
:101D400043683846984748B13A2302223946284624
:101D500000F01BF84FF0FF30BDE8FC810820E07375
:101D60000198401E010E2174010C6174010AA174D6
:101D7000E074022020756675BDF80000010AA175A7
:101D8000E0750C2060810020E6E7D0F8180290F89A
:101D90005D1200EBC10181F83C2290F85D2219022E
:101DA00000EBC202C2F8401290F85D12491CC9B2A1
:101DB00080F85D12042902D1002180F85D1270477D
:101DC0002DE9F041D0F8184205461746207A88469A
:101DD00020B12846BDE8F041FFF7D4BE94F81802C0
:101DE0004FF0FF3600063CD4D5F81C02816840460F
:101DF000884728B13A230AE02846FFF7C6FF1DE0CE
:101E0000D5F81C02C1684046884718B12723022232
:101E10004146F1E7D7F80200414600BA20F0FF0240
:101E200078790243C4F86422B7F8070043BA284619
:101E3000C4F86832FFF768FD002802DA3046BDE8D2
:101E4000F081B4F85E02D4F864124143C4F864121D
:101E5000D4F868124143C4F86812D4F814028842D6
:101E600004D0202394F819120522C5E7012020721E
:101E70004002814200D301468BB204F10C020121E1
:101E8000284600F0ADFB0020D9E7802008608000E4
:101E90001080002070470020704710B5FEF7B4FA9C
:101EA000002010BD002070470020704710B50C4680
:101EB00008B1022010BD044800EB42215A0220461E
:101EC000FEF740F9002010BD000001082DE9F04F99
:101ED00089B09A4691468846F0BB00240094FEF7EC
:101EE00093FA3D4800EB492142421144890A00EB34
:101EF00081253A4801210460C0E902518902A0F518
:101F000080600594FEF737F9354C00214FF40076D8
:101F1000002005EB412704EB41233A5A52BA4FEA1D
:101F2000122C03F800C003EB000C801C8CF801207D
:101F3000B042F2D3491C0229EAD32A48FEF79CF9A1
:101F40004FF0340B032802D02749C1F80CB005A983
:101F50002248FEF7BBF900E016E009F0010200207C
:101F6000B1460CE00021131804EB432301EB402C95
:101F700018F80C705F54491CB142F7D3401C50450F
:101F8000F0D30598401C03D0022009B0BDE8F08FC3
:101F90001448FEF771F9032802D01349C1F80CB0B8
:101FA0000026A246002405EB46280AEB46273819EE
:101FB00008EB04010088002340BA42BA0120FEF772
:101FC000E3F9A41C4C45F2D3761C022EEAD3FEF7AB
:101FD000D1F90020D9E70000000001081C10002002
:101FE0001C0C0020A08601000020024070477047B2
:101FF00030B593B028216846FEF7BDF814210AA831
:10200000FEF7B9F8002401200F94109411940104F4
:1020100012948DE8130004900005CDE90810022504
:1020200007956846FEF7BCFE0F20CDE90A05680259
:10203000CDE90C4001210AA80E94FEF795FD102071
:102040000F90800412900FA8FEF718FD13B030BD5A
:102050000D48016841F00101016041680B4A1140DF
:10206000416001680A4A11400160016821F4802141
:102070000160416821F4FE0141604FF41F0181605D
:102080000449C00308607047001002400000FFF8D8
:10209000FFFFF6FE08ED00E00148FFF72EB8000054
:1020A0002C100020F0B50268164B174C174D4FF05E
:1020B0008047984205D0B84203D0A04201D0A84240
:1020C00003D122F070064A683243984205D0B842E4
:1020D00003D0A04201D0A84203D122F44074CA68C0
:1020E000224322F080044A69224302608A68C26265
:1020F0000A688262984201D1096901630121416144
:10210000F0BD0000002C0140000400400008004029
:1021100010B5D0F8142252689047002010BD134625
:1021200010B50A46002100F05BFA002010BD1346EE
:1021300010B50A46002100F0E1FA002010BD10B5EC
:102140000446802100F0BFFA2046BDE8104000217F
:1021500000F0B9BA10B505210023C0F8F4111A46F1
:10216000194600F03DFA002010BD10B5022382612F
:10217000C0F8F431C26113460A46002100F0BEFAED
:10218000002010BD10B504210023C0F8F4111A4638
:10219000194600F0B3FA002010BD000010B50A4641
:1021A000024903A000F0DCF8004810BD1C0A002022
:1021B0004D534320436F6E6669670000122008800C
:1021C000004870472000002010B50A46024903A0CD
:1021D00000F0C6F8004810BD1C0A00204D534320F3
:1021E000496E7465726661636500000004200880B2
:1021F000004870471C00002010B50A46024903A0A1
:1022000000F0AEF8004810BD1C0A002053544D6980
:1022100063726F656C656374726F6E6963730000DF
:1022200010B50A46024903A000F09AF8004810BD14
:102230001C0A002053544D3332204D6173732053D8
:10224000746F72616765000010B51A2008800A4833
:102250000168001D0468001D0068081809D00822E4
:102260000649FFF70BF80549042210312046FFF715
:1022700005F80248801E10BDE8F7FF1F3600002059
:10228000F8B5044648880D46010A08294BD2DFE814
:1022900001F04A0409174A4A4048D4F81012207C39
:1022A0000A6832E0207C02260028D4F8140205D007
:1022B000C16A684688470146467041E0816AF8E78E
:1022C000C0B206282FD2DFE800F003080D12171C59
:1022D000D4F81012207C4A6817E0D4F81012207C41
:1022E0008A6812E0D4F81012207CCA680DE0D4F895
:1022F0001012207C0A6908E0D4F81012207C4A6988
:1023000003E0D4F81012207C8A69694690470146A0
:1023100016E0207C38B9D4F81402416B684688472F
:10232000F5E7207C20B129462046FFF708FFF8BDDD
:10233000D4F81402016B68468847014607204870AC
:10234000BDF800000028F2D0EA88002AEFD08242CF
:1023500000D90246ADF800202046FFF706FFF8BD81
:1023600070B5002300281DD00446002502E06D1C36
:10237000EDB2641C2678002EF9D1022404EB45044A
:102380001480CC545B1C0322CA5400245B1C06E05E
:10239000CA545B1CDAB28C54521CD3B2401C027873
:1023A000002AF5D170BD01004FF0000004D00129D2
:1023B00001D0022901D0022070470120704710B5DA
:1023C00080B1D0F8143213B10023C0F8143209B12F
:1023D000C0F81012012180F8FC11027000F0AEF874
:1023E000002010BD022010BD10B5D0F82002FEF76D
:1023F0001FF9BDE81040FFF7D6BF10B5D0F8200296
:10240000FEF7F6F8BDE81040FFF7CDBF2DE9F0412B
:102410001746044641B1D4F8140242698AB394F8CD
:10242000FC01032842D043E0D4F8F411002504F164
:102430001400022933D1D0E902639E4207D9F31A6E
:1024400083609AB239462046FFF771FE12E0406879
:10245000B0FBF3F103FB1101A1B9984212D3D4F8F8
:10246000F81188420ED2002211462046FFF75FFE87
:10247000C4F8F85100231A461946204600F0B0F877
:102480000DE012E0D4F81402C16829B194F8FC01FF
:10249000032801D1204688472046FFF75BFE94F8C9
:1024A0000002012804D184F8005201E02046904740
:1024B0000020BDE8F08170B51546044641B1D4F85E
:1024C000140282693AB394F8FC01032824D025E071
:1024D000D4F8F41104F5827003291FD1D0E9022148
:1024E0008A420BD9531A83600846834200D30346BD
:1024F0009AB229462046FFF712FE0FE0D4F81402E4
:10250000016929B194F8FC01032801D120468847CC
:102510002046FFF737FE01E020469047002070BDBF
:1025200010B5D0F82002FEF7A7F8BDE81040FFF77D
:102530003ABFD0F82002FEF7B9B8000010B519492B
:102540000446C1F85C04C0F820121748086008204F
:1025500048600220886000208861C86108620846DF
:10256000FEF7ACF908B1FDF725FE0022D4F82002F1
:102570001823114604F50874FEF710F858230022BA
:1025800080212068FEF70AF8982300228121206824
:10259000FEF704F8D823002201212068FDF7FEFF92
:1025A000002010BDBC050020005C00400A06D0F8E9
:1025B000200201F07F0100EB411002D590F82A00C3
:1025C000704790F82A02704710B51C461346D0F8A1
:1025D00020022246FEF772F8BDE81040FFF7E3BE86
:1025E00010B5D0F82002FEF78BF8BDE81040FFF7D9
:1025F000DABE70B50022044640231146FFF7E4FF1F
:1026000040252B46002280212046C4F81051FFF7B8
:10261000DBFF0120256284F8FC01D4F8180228B100
:10262000D4F814022179426820469047002070BDFA
:1026300090F8FD1180F8FC110020704710B590F85B
:10264000FC11032904D1D0F81412C96901B18847DB
:10265000002010BD01740020704710B5D0F8200292
:10266000FEF7C5F9BDE81040FFF79DBE70B5044602
:1026700000F50270054600F012F90120C4F8F401DB
:10268000B4F80E02C4F8F80194F8080210F01F0123
:102690000AD001290DD0022910D000F08001204677
:1026A00000F011F8002070BD2946204600F05DF9C9
:1026B000F8E72946204600F03FFAF3E7294620468E
:1026C00000F0CCF9EEE710B5D0F82002FEF72FF8B5
:1026D000BDE81040FFF767BE10B5D0F82002FEF746
:1026E000A1F9BDE81040FFF75EBE90F8FC1180F83C
:1026F000FD11042180F8FC110020704710B5D0F8BE
:102700002002FEF73FF8BDE81040FFF74CBE10B5C1
:10271000FEF76DFE002010BD10B5FEF785FE00200F
:1027200010BD10B504460121FFF767FE8121204648
:10273000FFF763FE2046FEF794FED4F8180220B19E
:1027400000F014FA0020C4F81802002010BD0000A8
:102750000A210180004870471C01002020210180CF
:1027600000487047DC0000202021018000487047AD
:10277000BC0000202021018000487047FC000020A0
:1027800070B50546007C0024B8B140230222012127
:102790002846FFF719FF4023022281212846FFF730
:1027A00013FF4FF41B7000F0E3F9C5F8180270B185
:1027B0002846FEF75BFE204670BD4FF40076334698
:1027C000022201212846FFF7FFFE3346E4E70124F9
:1027D000F1E709B1C0F81C120020704770B5064639
:1027E000D0F8185208780C4610F0600126D0202945
:1027F00053D16178FE2902D0FF2919D10EE06188FA
:10280000B1B9E188012913D1000611D5D6F81C020F
:102810008069804701222946286019E0618839B91A
:10282000E18829B9000603D43046FEF740FE34E0C3
:1028300021463046FFF783FC022070BD60780128F6
:102840000DD00A2802D00B2827D105E00122291D2E
:102850003046FFF78AFC20E0A07868601DE021790F
:102860003046FFF75DFE21793046FFF7C6FD20793F
:102870004FF400730006307C04D500B140230222DF
:10288000812103E000B14023022201213046FFF7FD
:102890009BFE21793046FEF795FD002070BD0A7839
:1028A00002704A7842708A78CB7802EB0322428029
:1028B0000A794B7902EB032282808A79C97902EB8B
:1028C0000121C18070470246002011B1C2F81412E4
:1028D00070470220704710B5D0F8142202241AB1B4
:1028E0001268904700B90024204610BD70B50E460E
:1028F0001A4D897804462970012928D894F8FC01DA
:10290000022802D0032822D105E099B1032061609A
:1029100084F8FC0109E091B1606888420AD0C1B234
:102920002046FFF7F5FB297861602046FFF7D3FFCB
:1029300002280CD02046BDE87040FFF723BC0220DF
:1029400084F8FC0120466160FFF7E2FBF2E73146C4
:102950002046BDE87040FFF7F2BB00008000002079
:1029600010B5FFF7B9FE002010BD2DE9F04100269B
:102970004B78012532460A2B43D2DFE803F03C585E
:102980004251420805422A27FFF77AFC63E00446D9
:102990008888C8B9C888B8B9887800F07F0794F8E3
:1029A000FC01032810D084F8FE7139462046FFF759
:1029B00054FE2046FFF7E6FB1FB1022084F8FC011D
:1029C00049E084F8FC5146E020461AE0FFF78EFF0C
:1029D00041E0CB88012B14D190F8FC31022B02D0BE
:1029E000032B0ED104E08260012200F1080114E003
:1029F0000122011D11E090F8FC21022A04D0032AD3
:102A000002D0FFF79CFB26E0C560D0F8041209B1A4
:102A10000321C160022200F10C01FFF7A6FB1AE0BE
:102A200004464888012816D1C4F804520BE0044635
:102A300090F8FC01022801D00328C5D1488801285C
:102A400009D1C4F80422D4F81402826820469047C1
:102A50002046FFF797FB3046BDE8F08170B50D4684
:102A60000446287800260979C0F34110012806D0D1
:102A70006878A0B301281FD003283FD107E0D4F81D
:102A800014022946826820469047002070BD94F8C1
:102A9000FC01022817D003282CD1688828B921B15D
:102AA000802902D02046FFF70EFED4F814022946F2
:102AB00082682046904713E094F8FC01022802D077
:102AC000032817D103E0C9B180291BD116E068881B
:102AD000A0B9480604D02046FFF786FCE5E703E0EE
:102AE0002046FFF74FFB09E094F8FC01022807D0CD
:102AF00003280BD029462046FFF721FB304670BD46
:102B00004806FBD02046FFF7DEFDF7E7080601F098
:102B10007F0004EB001501D5143501E005F5827541
:102B20002046FFF743FD00B101202860022229461C
:102B30002046FFF71AFBE1E770B5054690F8FC0167
:102B40000C4603280DD1207901280AD8D5F81402A3
:102B5000826828469047E08830B92846FFF712FB84
:102B600002E02846FFF7EBFA002070BD7047000036
:102B7000004870474C0300202DE9F047CC780A78D4
:102B800048F68F1334B1012C6DD0022C08D0032CE1
:102B900013D10BE030F822401C4044F400730AE0EB
:102BA00030F822401C4020F8224006E030F8224055
:102BB0001C4044F4C06320F822300C7830F82450D4
:102BC00048F68F72154048F280031D43254320F8D4
:102BD00024508D7A48F6BF7904274BF68F7A48F255
:102BE000C0044CF28006EDB30D7830F825C048F2F1
:102BF00080180CEA020C4CEA080C20F825C0CD889D
:102C0000B0F850C025F0010591F800800CEBC80C1D
:102C100000EB4C0CCCF800540D89B0F850C025F0F6
:102C2000010591F8008007EBC807674400EB4707F0
:102C3000C7F800544D78002D0D7830F825704FEA14
:102C400047477DD0002F05DA30F82570174037430D
:102C500020F825700D7830F825707F0608D530F8FB
:102C6000257001E024E01DE01740274320F825707F
:102C70000C7830F824501540354320F824500C7857
:102C800030F8242002EA09021A4320F824200A78A6
:102C900030F8221001EA0A01194320F8221000201E
:102CA000BDE8F08730F822401C4044F4806382E79E
:102CB0004D78F5B18D88B0F8506025F001050F789A
:102CC00006EBC70600EB4606C6F800540D7830F850
:102CD0002560760605D530F825601640264320F895
:102CE00025600A7830F8221001EA090181F02001FC
:102CF000D2E78C88B0F8505024F0010491F800C05D
:102D000007EBCC073D4400EB4505C5F80044B0F89F
:102D100050400D78062707EBC5052C4400EB44070F
:102D20000C694FF6FF7C07F580673E2C0CD9C4F385
:102D30004F15E40601D16D1EADB20CEA852400E00A
:102D40001EE044F4004407E0C4F34F05E40701D05B
:102D50006D1CADB20CEA85243C600C7830F8245030
:102D60006D0405D530F824501540354320F8245023
:102D70000A7830F8221001EA0A0181F440518BE709
:102D8000002F05DA30F825701740374320F82570FA
:102D90000D7830F82560760605D530F825601640A8
:102DA000264320F825600E7830F82650154025433C
:102DB00020F826500C7830F8242002EA0A0282F427
:102DC00040521A4320F824200A7830F8221001EAF1
:102DD000090161E7002070472DE9F04391F80A806E
:102DE00091F801C00A7848F6BF774BF68F7948F220
:102DF000800348F2C0054CF2800648F68F74B8F1A3
:102E0000000F2ED0BCF1000F30F822C04FEA4C4C1E
:102E10004ED0BCF1000F07DA30F822C00CEA040CE7
:102E20004CEA060C20F822C00A7830F822C05FEA8B
:102E30004C6C07D530F822C00CEA040C4CEA050CA7
:102E400020F822C00A7830F822502540354320F877
:102E500022500C7830F824203A401A4320F82420DD
:102E60001BE0BCF1000F0ED030F82260760605D5CD
:102E700030F8226026402E4320F822600A7830F88D
:102E8000221039400EE030F822506D0405D530F89C
:102E900022502540354320F822500A7830F822107D
:102EA00001EA0901194320F822100020BDE8F0834F
:102EB000BCF1000F07DA30F822C00CEA040C4CEA2F
:102EC000060C20F822C00A7830F82260760605D574
:102ED00030F8226026402E4320F822600E7830F829
:102EE000262022402A4320F826200C7830F824207F
:102EF00002EA09021A4320F82420BFE700207047A5
:102F00000020704700B50121A0F840100021A0F872
:102F10004010A0F84410A0F8501000F03AF900203A
:102F200000BD30F8401F21F43D4101800020704772
:102F30000020704730B54D780A78002D48F68F7420
:102F400030F8225048F2800312D06D0607D530F8D1
:102F50002250254048F2C004254320F822500A7828
:102F600030F8221048F6BF74214081F0300111E0A2
:102F70006D0407D530F8225025404CF280042543DB
:102F800020F822500A7830F822104BF68F74214036
:102F900081F44051194320F82210002030BD10B5B3
:102FA0000A7848F2800352B14978002930F822109B
:102FB00010D048F6BF74214081F010010FE0018865
:102FC0004BF6BF72114081F4805181F0100119431A
:102FD000018007E04BF68F74214081F48051194342
:102FE00020F82210002010BD2DE9F0410D460646C4
:102FF000896995F801C00023AA7A022728690C463E
:1030000048F28008BCF1010F05D0814252D9044634
:10301000081AA8614FE0814203D90446081AA86142
:1030200000E0AB617AB1287836F820104906B6F88E
:10303000501007EBC000084406EB4000C0F8004405
:1030400012D52A8911E0A3B2AA883046696900F036
:10305000CCF8B6F85000297807EBC101084406EB1C
:103060004000C0F800441CE0EA88A3B23046696919
:1030700000F0BBF8687848F68F7110B1012807D0CE
:103080000FE0287836F820200A4048F2C00105E019
:10309000287836F820200A404CF280010A4326F8AE
:1030A0002020297836F8210048F6BF72104080F0C1
:1030B000300067E0AB6106234FF6FF701AB1BCF138
:1030C000000F1BD056E0B6F850102A783E2C03EBC8
:1030D000C202114406EB410202F5806239D9C4F301
:1030E0004F11E30632D000BF00EA812040F40040D7
:1030F00002E000BF00EA812010603BE0B6F850100B
:103100002A783E2C07EBC202114406EB410202F57D
:1031100080620BD9C4F34F115FEAC46C01D1491E20
:1031200089B200EA812141F4004108E0C4F34F0173
:103130005FEAC47C01D0491C89B200EA8121116098
:1031400069780029BFD001290AD013E0491E89B24D
:10315000CAE7C4F34F01E307CCD0491C89B2C9E7E1
:10316000B6F85000297807EBC101084406EB40008F
:10317000C0F80044297836F821004BF68F721040D1
:1031800080F4405040EA080026F821000020BDE805
:10319000F08130F8401F41F43F410180002070472A
:1031A00000207047002070470148FDF700BB000079
:1031B000BC050020B0F84400704700005B1C00EB29
:1031C00042005B0800F5806006D000BF30F8042B99
:1031D00021F8022B5B1EF9D170470020704711B90E
:1031E0008021A0F84C100020704710B55B1C00EB4C
:1031F00042005B0800F5806009D011F8012B5B1ECE
:1032000011F8014B42EA042220F8042BF5D110BD3D
:10321000FEE702E008C8121F08C1002AFAD1704771
:103220007047002001E001C1121F002AFBD1704746
:10323000FDF70CF9FEF7DCFEFEF762F9FEF776F912
:10324000FEE7008002021F00000053544D202020A2
:10325000202050726F64756374202020202020206D
:103260002020302E3031000000000000000001025C
:10327000030406070809000000000102030400001F
:103280000003008083000000000000000000060032
:103290000000000000000000B8320008000000201C
:1032A0002801000012320008E03300082801002045
:1032B000681F000022320008BD210008ED2100082F
:1032C000F921000821220008492200089D21000858
:1032D000C921000804030904120100020000004093
:1032E00083042A5700020102030100001A030000B0
:1032F00000000000000000000000000000000000CE
:1033000000000000000000009B1E00088B1E00084B
:10331000A51E0008A91E0008AD1E0008CD1E00084D
:10332000971E000842320008010000001000000053
:103330000000000000A24A040000000081270008ED
:1033400023270008DD27000800000000000000001F
:103350000F270008192700080000000000000000E7
:1033600000000000692700085D2700087527000895
:103370005127000809022000010104C0320904009D
:10338000000208065005070581020002000705013A
:103390000200020009022000010104C032090400F9
:1033A00000020806500507058102400000070501DC
:1033B0000240000009072000010104C03209040096
:1033C00000020806500507058102400000070501BC
:1033D000024000000A060002000000400100000058
:04000005080000ED02
:00000001FF
